:02000002B0004C
:1040000000400B00C0670B00000006000C0005021A
:084010000401E50C00000000B2
:04401800A4620B0093
:10401C0009480A49884208B505D0094A824202D0AB
:10402C00121A02F07DF80748074A0021121A02F012
:10403C0085F8014808BD00BFF4E5032028670B0094
:10404C0064E6032068E60320F1E7032070B5074E11
:10405C00074C01F011FDA41BA4080025AC4200D1B3
:10406C0070BD56F8043B98470135F7E7D4660B0052
:10407C00F8660B0000F0B6B808B500F0B5F8BDE86E
:10408C00084001F0B1BC00F01DBF00F01BBF00F0F8
:10409C0021BF00F01FBF0078B0FA80F040097047D4
:1040AC000123037070470000B0B502F1080388B01B
:1040BC0023F0070300AFADEB030D1546044668462D
:1040CC0002F02EF80023214638460DF8053001F099
:1040DC00D0FD2A4907F1100001F0CBFD07F11001CA
:1040EC00384601F011FE054607F1100001F076FD8F
:1040FC00384601F073FDADB1694607F1100001F0CF
:10410C00B8FD1F4907F1100001F0ECFD044607F162
:10411C00100001F063FD1B4B6CB301221A702037A9
:10412C00BD46B0BD2146384601F0A3FD164907F146
:10413C00100001F09EFD07F11001384601F0E4FD7E
:10414C00044607F1100001F049FD384601F046FD28
:10415C00002CE4D0694607F1100001F08AFD0849F3
:10416C0007F1100001F0BEFD044607F1100001F04C
:10417C0035FD064BD0E71C70D1E700BF29630B005F
:10418C00B8620B00D0E6032046630B00C8E60320A0
:10419C001FB50F4B0F4C19680A22684601F08FFDB2
:1041AC00009A0D49204600F05AFB684601F016FDB6
:1041BC000A4B0A221968684601F081FD009A0849E9
:1041CC00204600F04CFB684601F008FD04B010BD21
:1041DC00F4E5032068E60320BD620B00CCE6032067
:1041EC00DB620B00704700007FB53C4800F0BCF967
:1041FC0000285FD03A4C394800F08DFB2368012B26
:10420C003FD0022B28D0002B36D1364B364D1B78A5
:10421C0063B1364B1E784EB9354B1A68012A05D05E
:10422C0001221A6000F09AFDC5E9000600F096FD27
:10423C00D5E90023801A41F2893263EB43039042A3
:10424C0073F1000318D32A4B1A68012A14D10022E7
:10425C001A60022323600FE0244B1B7863B1012307
:10426C00236001F0EBFA234901F087FC00F076FDA6
:10427C001D4B002218605A6004B0BDE87040FFF777
:10428C0087BF194D00F06AFDD5E90023801A41F271
:10429C00893263EB4303904273F100034FF0000645
:1042AC00EAD3134B266002221A6000F057FDC5E9D1
:1042BC000006E1E7684600F079FD0099074800F038
:1042CC0043FA684601F08AFC0B49044800F06BFC89
:1042DC000A49024800F067FCCEE700BF68E60320FD
:1042EC00F4E50320D0E60320D8E60320C8E603203B
:1042FC00CCE60320F8620B001D630B003A630B0045
:10430C0007B5002300930549054B064840F25B7244
:10431C0000F04EF803B05DF804FB00BF56630B00D1
:10432C00B5400B0068E6032091F85C3010B50446EC
:10433C00016013B1886D00F0F1FC204610BD10B582
:10434C00036893F85C20044612B1986D00F0EEFC03
:10435C00204610BDF8B51F469DF8243004460D4686
:10436C0016462BB1012380F85C30583000F0CEFC9F
:10437C00089B23630023636306B1A66425B1294619
:10438C0004F1380001F089FC069B2365079BE0696A
:10439C00A4F84C70FF2BB8BFFF23A4F8543008B11D
:1043AC00FFF775FEB4F85400FFF76FFEE061F8BD3F
:1043BC002DE9FF4104460025174698460E4601F0AC
:1043CC007DF90D49E56104F1380001F052FC9DF8CE
:1043DC002830A564CDE90283FF220F23CDE90032FA
:1043EC00204684F85C503B462A463146FFF7B2FF24
:1043FC00204604B0BDE8F081D0660B0010B5044631
:10440C00204601F0B7F80028FAD0204600F09CFEB8
:10441C00C0B210BD2DE9F04705468846FFF7EEFF08
:10442C00EB691870EB6993F800A04FF001090AF0E2
:10443C00F00A00274C462846FFF7E0FF2646EB69BA
:10444C00985500F07F0313FB09F31F440134030656
:10445C00A4B2BFB24FEAC919EDD4631EBAF1300F42
:10446C0088F800301ED12846FFF7C8FFEB691855B5
:10447C002846FFF7C3FFF41C0236B6B2EB69A4B2B0
:10448C0098550226B6B2BE420ED22846FFF7B6FFAA
:10449C00B5F85430A34284BFEB6918550134A4B26B
:1044AC000136EFE70026EDE7B5F85430A3422CBFF8
:1044BC0020460020BDE8F0872DE9F34115461E4645
:1044CC001A4607460023964602A802F07F0CBEF15E
:1044DC007F0F03F10104034488BF4CF0800CBEF144
:1044EC007F0F4FEAD212E4B203F804CC1ED8C4F109
:1044FC000403C4F10500E954224601A9284405EB44
:10450C00030801F00DFE721C22444146384600F0AF
:10451C0006FE054600F022FC621C78623244A8B20A
:10452C00131A5842584102B0BDE8F0812346CAE73D
:10453C000233F0B5054698B20023CE5C9CB256B15E
:10454C00B5F854C0844503F1010704D9441C165432
:10455C003B46A0B2F1E799B2411A0A44210A02F88B
:10456C00021C02F8013CF0BD38B5044600F024FFF3
:10457C00002814BF0125002502D1204601F054F873
:10458C00284638BD2DE9F04788B00446DDF8408058
:10459C009DF850A0894617461E46FFF7E5FF0546D5
:1045AC00002840F0CD80214601A8FFF7BDFEA16C8C
:1045BC00002940F08880B4F84C20A16B2B46204693
:1045CC0000F07CFE00287AD0012323849DF854301F
:1045DC00E269042B5B4B40F08180186899889B79C9
:1045EC00ADF80C108DF80E300290C2F805009DF855
:1045FC000E30BDF80C10A2F80910D3720C23B8F1D0
:10460C00000F00F081809DF848009DF84420400187
:10461C0040EAC20040F00600C0B2BAF1000F01D16E
:10462C0000F0FD001FB1002E70D140F08000E26957
:10463C00D054226DE169581C12120A549A1CE1697B
:10464C00206D88540333E26949462046FFF770FF1A
:10465C000346B8F1000F0BD0E26941462046FFF744
:10466C0067FFE269139903462046FFF761FF034693
:10467C0067B1E26939462046FFF75AFF03462EB16F
:10468C00E26931462046FFF753FF0346053BE269DA
:10469C009BB210212046FFF70FFF00F05FFBC4E92F
:1046AC0009004FF47A76204600F064FF88BB00F0D6
:1046BC0055FBA36AC01A236D73439842F3D9204665
:1046CC0000F0B2FF35E002A801F05CF9B4F84C2020
:1046DC002B4602A9204600F0D1FE73E7D3F8070061
:1046EC00D3F80B10DB7B0DF1080CACE803008CF855
:1046FC00003002AB03CBC2F80500C2F809109CF8DD
:10470C00003053730E237AE7022086E740F0C00096
:10471C008DE702A92046FFF77DFE0428CFD1E3697F
:10472C00DE78002ECBD100F019FB0125A06284F8B5
:10473C002C6001A8FFF703FE284608B0BDE8F087FF
:10474C000025F9E765630B007FB501230422CDE951
:10475C0004320023CDE90233CDE900331A46FFF7CA
:10476C0011FF07B05DF804FB2DE9F74FDDF83C8035
:10477C009DF834509DF8389004468B4616461F46DB
:10478C00FFF7F2FE8246002851D0214601A8FFF720
:10479C00CBFDB4F85420E069002101F0CFFC0523D7
:1047AC00E26959462046FFF7C3FE6B1E012B15D854
:1047BC00218CE369013189B22184090A1954421C04
:1047CC00E369218C92B20230995480B2B8F1000F97
:1047DC0004D0238C5A1C2284A8F8003000210B181A
:1047EC008F42E2699BB20AD9B4F854C09C4506D9F1
:1047FC0016F801C002F803C0013189B2EFE79DF849
:10480C00301000290CBF30213121B9F1000F01D03B
:10481C0041F00801022D0ED141F00401053B9BB281
:10482C002046FFF749FE824601A8FFF788FD504657
:10483C0003B0BDE8F08F012D08BF41F00201EDE798
:10484C001FB5089C0394002402949DF81C4001940D
:10485C009DF818400094FFF787FF04B010BD30B5E9
:10486C0087B0044610460591049201F0A7FC002580
:10487C000346CDE90155DDE9042100952046FFF7FB
:10488C00DFFF07B030BD73B504460E46FFF76CFE74
:10489C000546C8B1214601A8FFF746FDE36962222F
:1048AC001A70E36902225A70E369320A9A70E3695A
:1048BC00DE70E1690422204600F031FC051E01A8DF
:1048CC0018BF0125FFF73BFD284602B070BD73B53C
:1048DC0004460E46FFF748FE0546C8B1214601A81E
:1048EC00FFF722FDE36972221A70E36902225A7003
:1048FC00E369320A9A70E369DE70E16904222046AA
:10490C0000F00DFC051E01A818BF0125FFF717FDCF
:10491C00284602B070BD2DE9F04F2DED028B87B00B
:10492C0000AF0446FFF720FE8146F8B1214607F19F
:10493C001400FFF7F9FC00F011FA236D4FF47A72B2
:10494C005343A26A821A9A42064603D8626A821AB2
:10495C00934221D294F82C307BB1204600F064FEB7
:10496C004FF0000907F11400FFF7E9FC48461C372B
:10497C00BD46BDEC028BBDE8F08FE269C021117021
:10498C00E2695370E1690222204600F0C8FBC4E9D9
:10499C000966012384F82C30204600F0EBFD00283A
:1049AC00E0D007F113012046FFF734FD83460028C1
:1049BC00D8D0E369A662197801F0F002302A7FD1D1
:1049CC00D4F830A0BAF1000FCCD097F813C06A46D7
:1049DC0008EE102A03EB0C025178957805EB0125B3
:1049EC00ADB205F108026946D208A1EBC2029546A8
:1049FC000CF10302FA6003EB020E0DEB05026846A4
:104A0C00C7F808D07A60D7E901218A4206D00A4655
:104A1C001EF8018B02F8018BBA60F4E700224255B4
:104A2C0093F80080F96808F00608ABEB0C02033A27
:104A3C00B8F1020FA2EB0502294425D113F801E0CD
:104A4C001944023A91F801B00CF1050129441944BA
:104A5C000BEB0E2BD047E36940221A70E3691FFA67
:104A6C008BFB83F80180E3694FEA1B229A70E369A0
:104A7C0083F803B0E1690422204600F050FB666223
:104A8C0018EE103A9D466DE7B8F1040F15D113F8E6
:104A9C0001E01944023A91F801B00CF105012944E6
:104AAC0019440BEB0E2BD047E36950221A70E369C3
:104ABC0002221FFA8BFB5A70D5E71944D047DFE767
:104ACC00502A08D19A78D97801EB022189B2204674
:104ADC00FFF7D9FE46E7402A12D1626B002A3FF459
:104AEC0041AFBBF1040F7FF43DAF11F0060F7FF423
:104AFC0039AF9978D87800EB012080B2904731E734
:104B0C00602A08D19A78D97801EB022189B2204623
:104B1C00FFF7DDFE26E7702ADFD0902A3FF422AFA4
:104B2C00C02A0AD1D0221A70E36900225A70E169B6
:104B3C000222204600F0F3FA14E7D02A04BF002327
:104B4C0084F82C300EE7F7B504460F461646FFF7EF
:104B5C000BFD054610B3214601A8FFF7E5FB238C9E
:104B6C0001339BB2EBB12384238CE2691B0A537192
:104B7C00E369228C9A71E269072339462046FFF7D4
:104B8C00D7FCE3691E54043883B2E26982212046C3
:104B9C00FFF792FC054601A8FFF7D1FB284603B0AE
:104BAC00F0BD0123DFE70022FFF7CDBF08B5024BB4
:104BBC001B681B68019308BD4C02030008B5024B2F
:104BCC001B681B69019308BD4C02030008B5024B1E
:104BDC001B685B69019308BD4C02030008B5024BCE
:104BEC001B689B69019308BD4C02030008B5024B7E
:104BFC001B68DB69019308BD4C02030008B5024B2E
:104C0C001B681B6A019308BD4C02030008B5024BDC
:104C1C001B689B69019308BD3802030008B5024B61
:104C2C001B68DB69019308BD3802030008B5024B11
:104C3C001B681B6A019308BD3802030008B5024BC0
:104C4C001B689B6A019308BD3802030008B5024B30
:104C5C001B681B6B019308BD3802030008B5024B9F
:104C6C001B689B6B019308BD3802030008B5024B0F
:104C7C001B68DB68019308BD3C02030008B5024BBE
:104C8C001B681B69019308BD3C02030008B5024B6D
:104C9C001B685B69019308BD3C02030008B5024B1D
:104CAC001B689B69019308BD3C02030008B5024BCD
:104CBC001B68DB69019308BD3C02030008B5024B7D
:104CCC001B689B6A019308BD3C02030008B5024BAC
:104CDC001B681B6C019308BD3C02030008B5024B1A
:104CEC001B685B69019308BD6402030008B5024BA5
:104CFC001B681B6A019308BD6402030008B5024BD4
:104D0C001B689B6A019308BD6402030008B5024B43
:104D1C001B681B6B019308BD4802030008B5024BCE
:104D2C001B689B6B019308BD4802030008B5024B3E
:104D3C001B681B6C019308BD4802030008B5024BAD
:104D4C001B685B6C019308BD4802030008B5024B5D
:104D5C001B685B68019308BD1802030008B5024B81
:104D6C001B685B69019308BD1802030008B5024B70
:104D7C001B685B69019308BD6C02030008B5024B0C
:104D8C001B689B68019308BD6802030008B5024BC1
:104D9C001B68DB68019308BD6802030008B5024B71
:104DAC001B681B6D019308BD6002030008B5024B24
:104DBC001B68DB69019308BD4402030008B5024B74
:104DCC001B68DB6B019308BD4402030008B5024B62
:104DDC001B685B68019308BD4002030008B5024BD9
:104DEC001B689B68019308BD4002030008B5024B89
:104DFC001B68DB68019308BD4002030008B5024B39
:104E0C001B681B69019308BD4002030008B5024BE7
:104E1C001B685B69019308BD4002030008B5024B97
:104E2C001B689B69019308BD4002030008B5024B47
:104E3C001B68DB69019308BD4002030008B5024BF7
:104E4C001B681B6A019308BD4002030008B5024BA6
:104E5C001B681B6B019308BD4002030008B5024B95
:104E6C001B685B6B019308BD4002030008B5024B45
:104E7C001B681B6C019308BD4002030008B5024B74
:104E8C001B685B6C019308BD4002030008B5024B24
:104E9C001B685B68019308BD2002030008B5034B37
:104EAC001B68D3F88830019308BD00002002030072
:104EBC0008B5034B1B68D3F89430019308BD000070
:104ECC002002030008B5024B1B681B68019308BD48
:104EDC001C02030008B5024B1B685B68019308BDFC
:104EEC001C02030008B5024B1B689B68019308BDAC
:104EFC001C02030008B5024B1B68DB6B019308BD59
:104F0C001C02030008B5024B1B681B6C019308BD07
:104F1C001C02030008B5024B1B685B6C019308BDB7
:104F2C001C020300002340681A46FFF74FBF40687D
:104F3C0000220221FFF75ABF002240681146FFF7FA
:104F4C004DBF002240681146FFF758BF0023406850
:104F5C001A461946FFF75ABF002340681A461946ED
:104F6C00FFF75CBF40680021FFF780BF406800215D
:104F7C00FFF784BF4068002281F00101FFF756BFA4
:104F8C0040680022FFF762BF002240681146FFF71D
:104F9C0065BF002240681146FFF750BF2DE9F04372
:104FAC0095B014460D46074600F0A8FC00211C22C3
:104FBC000DA8009101F0C2F840230C9320466B46DB
:104FCC000CAA0021FFF7E2FE044600284BD1024652
:104FDC0001216868FFF712FF0221804622466868AB
:104FEC00FFF70CFF009E81462146002E3BD0002986
:104FFC0039D17368022B03D00A2B11D0F669F4E770
:10500C00B8F1000FFAD0716906A8043107AD00F0B1
:10501C00B9FC0FCD3C1D0FC42B6823704146EDE746
:10502C00B9F1000FEAD07469102201A801F086F8DA
:10503C0006238DF8143001AD04F1080318341868F8
:10504C0059682A4603C20833A3421546F7D101A971
:10505C0006A807AD00F060FC0FCD3C1D0FC42B68FB
:10506C0023704946CAE70098FFF788FE384615B00A
:10507C00BDE8F083024B034A1A6000225A60704765
:10508C00E0E6032080630B00002240681146FFF726
:10509C00B5BE002240681146FFF7D0BE0022406822
:1050AC001146FFF7DBBE40680022FFF7CFBE406819
:1050BC00002281F00101FFF7B9BE002340681A46B7
:1050CC001946FFF7ABBE002340681A461946FFF796
:1050DC009DBE002240681146FFF780BE406800224A
:1050EC000221FFF783BE002340681A46FFF76EBE0D
:1050FC00024B04225A60024A1A607047E8E6032009
:10510C00BC630B0013B503688DF80710DC6B012230
:10511C004FF0FF330DF10701A04702B010BD10B4E2
:10512C000368DC6B4FF0FF33A4465DF8044B60471B
:10513C0013B5134602688DF80710D46B0DF10701F7
:10514C000122A04702B010BD10B54369B3F8862008
:10515C00B3F884309A42044608D06369B3F88420CB
:10516C00511CA3F884101344187910BD03681B69F3
:10517C0098470028F1D14FF0FF30F6E770474369AC
:10518C001868C043C00F704770470000064B994227
:10519C0010B500F10C0405D0084600F0A9FE00285B
:1051AC0008BF0024204610BD24640B0010B5AC21B0
:1051BC000446FEF76EFF204610BDAC21FEF769BF1A
:1051CC002DE9F0414FF0000886B01C46C0F8048071
:1051DC0005460E4617464146102202A800F0AEFFC7
:1051EC00631C09D04FF47A73B4FBF3F203FB124443
:1051FC00CDE902285C43049468691023009300688D
:10520C0002AB41F2050240F6FF71FFF7FFFC0028EC
:10521C0007DAFFF76FFE03686B60002006B0BDE88D
:10522C00F0816869002300683A463146FFF70EFDAD
:10523C00031EEEDB1846F1E738B584690A4B0360B0
:10524C0005467CB16368013B63605BB9236820460B
:10525C009B689847A368013BA3601BB92368204651
:10526C00DB689847284638BD34640B0010B50446FB
:10527C00FFF7E2FF20461C21FEF70BFF204610BD76
:10528C0030B587B0044601AD684600F07BFB0FCD0E
:10529C0004340FC42B68237007B030BD70B54D6952
:1052AC00054B04468C3544F8043B06460FCD0FC421
:1052BC002B682370304670BDE0640B002DE9F04381
:1052CC009846036893B00D460024DB6A06461746E1
:1052DC00984728466B46224621460094FFF756FD18
:1052EC000546002863D1009B002B4BD05B69002B3B
:1052FC0048D006A800F002FB009B5C696378022B87
:10530C0004D1211D06A8FFF7BBFF26E00A2B24D1F0
:10531C001122294601A800F011FFA368002B38D0F8
:10532C0004F108030DF1040C18341868596862462E
:10533C0003C20833A3429446F7D1062301A90CA853
:10534C008DF8143000F0E8FA0DF1340CBCE80F00C5
:10535C0007AC0FC4DCF80030237006A800F0EEFA9E
:10536C0080B1336807ADD3F82090124B0C930FCD5E
:10537C000DAC0FC42B6823703A4643460CA930463B
:10538C00C84705460098FFF7F9FC284613B0BDE85E
:10539C00F083E368002BC3D14FF6FF70D4F8109064
:1053AC00FFF7A4FC8145BBD104F11401AAE7254603
:1053BC00E8E700BFE0640B0038B543691A68002ABF
:1053CC00054610DAB3F88620B3F884309A420AD135
:1053DC0003681B699847044628B92B682846DB6A82
:1053EC009847204638BD0120FCE710B54369B3F857
:1053FC008620B3F884309A42044605D06369B3F82A
:10540C0084201344187910BD03681B699847002841
:10541C00F4D14FF0FF30F6E7F8B543691746B3F80F
:10542C008620B3F884309A4205460E4616D0696938
:10543C00B1F88430B1F88640E41ABC4228BF3C462F
:10544C00043322461944304600F06AFE6A69B2F809
:10545C0084302344A2F884302046F8BD03681B69CD
:10546C0098470028E3D14FF0FF34F5E74269002359
:10547C00A2F884304269A2F8863070472DE9F041D9
:10548C001F4603680C46DB6A8AB0054616469847E9
:10549C00237DD5F81480042B0CBF02200A20062291
:1054AC000121FFF7DBFBC8F800006B691B68002BC0
:1054BC0008DA2B682846DB6A0024984720460AB095
:1054CC00BDE8F0812846FFF7D1FFB7B1002303A94F
:1054DC00F8B20393ADF81030FFF748FC0028E8D180
:1054EC00686906230093006803AB41F20B0240F697
:1054FC00FF71FFF78BFB0028DBD11C22002103A8D6
:10550C0000F01CFE237D042B1DD14FF40773304695
:10551C00ADF80C30FFF7F2FBADF80E006068FFF74A
:10552C00E5FB04906B691C22186803A9FFF77EFB4E
:10553C000028BED104340FCC6D698C350FC523689F
:10554C002B700124BAE740F61C233046ADF80C3022
:10555C00FFF7D4FB05AEADF80E00231D04F11407C4
:10556C0018685968324603C20833BB421646F7D155
:10557C00D8E7000030B54269B2F886308BB00446EB
:10558C002BB1B2F884209A4201D1FFF76FFF616909
:10559C000868002818DBB1F886507F2D14D8043128
:1055AC000823C5F180022944FFF748FB002813DDCE
:1055BC006369B3F886200AB9A3F884206369B3F849
:1055CC0086201044A3F886006369B3F88600B3F80C
:1055DC008430C01A0BB030BDFFF78CFC03680B2B6A
:1055EC00F2D0FFF787FC03680B2BEDD020230025AE
:1055FC00CDE90235FFF77EFC03680193084B09499E
:10560C00009302AA2B463220FFF7C8FB6369186887
:10561C00FFF704FB63694FF0FF321A60D4E700BF59
:10562C00F7630B00F0630B0010B543690446186870
:10563C00002801DBFFF7F2FA63694FF0FF321A60C2
:10564C006069112200218C3000F078FD2046BDE805
:10565C001040FFF70BBF10B5002304460160C0F8E3
:10566C008430883000F04AF9204610BD73B5002311
:10567C004FF47A72C0E901320E4A03610260436151
:10568C000446AC200191FEF7FEFC051E05F10C064C
:10569C0008D00123C5E90133074B01992B60304633
:1056AC00FFF7D9FF2046C4E90565FFF7DFFE02B01E
:1056BC0070BD00BF34640B0010640B0010B54FF0CC
:1056CC00FF310446FFF7D2FF204610BD10B504464B
:1056DC000068002801DBFFF7A1FA204610BD0C3052
:1056EC00FFF7F4BF70474174704708B5007CFFF7B3
:1056FC00E5FA20EAE07008BD08B5007CFFF7BEFAB9
:10570C0020EAE07008BD08B5007CFFF7C7FA40EA54
:10571C00E07008BD08B5007CFFF7B8FA40EAE0700D
:10572C0008BD007CFFF7C2BA37B5457C04462DB1E5
:10573C00207C03B0BDE83040FFF798BA007C0191A3
:10574C00FFF7BCFA00280199F2DC284603B030BD03
:10575C0010B514210446FEF79CFC204610BD000039
:10576C0010B54FF47A730446084611460022C4E97A
:10577C000123044B2360012320746374FFF7A6FA02
:10578C00204610BD80640B00417470477047704711
:10579C0008B50021007CFFF721FA40EAE07008BD53
:1057AC0008B50121007CFFF719FA40EAE07008BD4A
:1057BC0008B5007CFFF70AFA20EAE07008BD08B5CE
:1057CC00007CFFF7FBF920EAE07008BD13B5044636
:1057DC00007C0191FFF7FAF90028019901DC607C4B
:1057EC0020B1207CFFF702FA20EAE07002B010BD75
:1057FC00007CFFF703BA10B514210446FEF749FCF0
:10580C00204610BD10B54FF47A73044608460021AB
:10581C00C4E90113044B2360012320746374114603
:10582C00FFF7C4F9204610BDB0640B0010B514226C
:10583C000446002100F082FC204610BD10B50F4C30
:10584C0088B003A8FFF7F2FF2178BFF35B8F11F04C
:10585C0001010FD120460191FEF71DFC019948B1C1
:10586C0003AA0748FFF7CEFF2046FEF719FC0548B0
:10587C0000F050FC024808B010BD00BFF0E6032059
:10588C00F4E6032099570B00704710B51821044615
:10589C00FEF7FFFB204610BDF0B5037D062B8DB047
:1058AC000E4600F104074FF0000412D000F1080579
:1058BC0015F8011D0A22304600F069F9AF42044484
:1058CC0019D0002CF4D02E21304600F047F90444B6
:1058DC00EEE72F236A4639460A208DF80040FFF781
:1058EC00FDF9684600F06AFC33680246DB686946DD
:1058FC0030469847044620460DB0F0BD10B5054B18
:10590C000446112240F8043B002100F017FC20460D
:10591C0010BD00BFE0640B000346074A10B543F806
:10592C00042B01F1100251F8044B43F8044B914243
:10593C00F9D10A781A7010BDE0640B00037D042BBA
:10594C0004D14068003818BF01207047062B07D1DE
:10595C0043683BB983682BB9C3681BB90069F1E78D
:10596C00002070470120704710B59DF8084044EAAC
:10597C00032343EA024242EA0161042341600375B6
:10598C0010BD000007B5064B0360CB7800938B78F5
:10599C004A780978FFF7E8FF03B05DF804FB00BF15
:1059AC00E0640B00014B1860704700BFFCE503205E
:1059BC0008B50B4B43B1FFF741FF03681B699847D0
:1059CC00002801DDAFF30080064B43B100F06AFA0A
:1059DC0003681B699847002801DDAFF3008008BD00
:1059EC00000000000000000008B5FFF7E1FFFFF722
:1059FC00B5F9014B186008BD44E703200548064A79
:105A0C00064908B5121A00F08BFB054B054A1A60C3
:105A1C0008BD00BF00F4032004F4032024670B002E
:105A2C0000F403201E1C279A07B5002300931A4686
:105A3C006FF07701FFF73CFA03B05DF804FB000050
:105A4C0007B543880A2B08D0502B0BD1094B1B6888
:105A5C004BB103B05DF804EB1847FFF7E5FF03B05B
:105A6C005DF804FB002300931A466FF07701FFF7F3
:105A7C001FFAF4E70CE7032010B512480021FFF7DA
:105A8C0049FA114B1A68114B9A42114B0CBF012267
:105A9C0000221A7001D0FFF7B1FFFFF757F9044647
:105AAC0000F054FB0B4B13B12046AFF300800021E8
:105ABC000848FFF783F9BDE8104007480021FFF7BD
:105ACC00EDB900BFB1590B0000F403201E1C279A3E
:105ADC0008E70320000000004D5A0B00014B002288
:105AEC009A60704710E70320024B1A68024B1A6049
:105AFC00704700BFF8E5032020E70320014B024A62
:105B0C001A60704724E7032008650B00F8B50646B9
:105B1C000D468F180024BD420CD0336815F8011BBC
:105B2C009B6830469847031E01DB1C44F3E7002CAE
:105B3C0008BF1C462046F8BD13B50446084659B1AB
:105B4C00019100F03BFB23680199DB68024620467B
:105B5C0002B0BDE81040184702B010BD03689B6846
:105B6C00184738B50D210546FFF7F8FF0A21044602
:105B7C002846FFF7F3FF204438BD38B50546FFF73C
:105B8C00DBFF04462846FFF7ECFF204438BD30B558
:105B9C008BB00023012A8DF8243098BF0A2209AC5F
:105BAC000D46B1FBF2F101FB125303F0FF03092B7D
:105BBC0094BF30333733DBB2AA4204F8013DEFD93E
:105BCC002146FFF7B9FF0BB030BD0000024800239F
:105BDC000360FFF7B3B800BF28E7032010B50446F5
:105BEC000068FFF777F9204610BD10B50446006831
:105BFC0008B1FFF76FF90023C4E90133236010BD2E
:105C0C0038B504460D4600680131FFF76BF910B149
:105C1C00C4E90005012038BD10B50368044623B162
:105C2C0043688B4201D3012010BD2046FFF7E8FFEB
:105C3C000028F9D0A368002BF5D122681370F2E785
:105C4C0037B50D46114601920446FFF7E5FF019A60
:105C5C0028B92046FFF7C9FF204603B030BDA2602B
:105C6C002946206800F05CFA2268A3680021D15410
:105C7C00F2E7002313B5C0E90033044683600373D5
:105C8C0041B10846019100F099FA0199024620466B
:105C9C00FFF7D6FF204602B010BD13B5044659B12C
:105CAC000846019100F08AFA019902462046FFF756
:105CBC00C7FF204602B010BDFFF797FFF9E710B5FC
:105CCC0004468AB00023C4E90033A360237308465A
:105CDC0001A900F064F801A92046FFF7DEFF204679
:105CEC000AB010BD08B582683AB921B10878B0FA8B
:105CFC0080F0400900E0012008BD006809B9007877
:105D0C00F5E700F051FAF2E708B583688A68934228
:105D1C000BD3006840B1096849B19B1A184400F0D4
:105D2C0043FAB0FA80F0400908BD0020FCE70846B1
:105D3C00FAE710B5044600F041FA01382318204662
:105D4C00834206D90278197800F8011B03F801295F
:105D5C00F6E710BD70B50C46911E22291DD82546BC
:105D6C0030B9234430229D4210D205F8012BFAE7BA
:105D7C00B0FBF2F602FB1600C1B2092894BF303119
:105D8C005731C9B205F8011B3046E9E7002320461C
:105D9C002B70FFF7CEFF204670BD0020FCE738B516
:105DAC00031E0C4615460EDAB3F1004F4FF02D02D0
:105DBC0014BF5842184601230A702A461944FFF7AB
:105DCC00C9FF204638BD0123F9E70000054B02222C
:105DDC001A60054B054A9A600020C3E90000FFF7E2
:105DEC0055B800BF38E703202CE703200000FFFF65
:105DFC00002240681146FFF721B800224068114686
:105E0C00FFF72CB840680022FFF720B8406800224A
:105E1C0081F00101FFF70AB8002340681A461946C1
:105E2C00FEF7FCBF002340681A461946FEF7EEBF8A
:105E3C00002240681146FEF7E1BF0022406811467F
:105E4C00FEF7CCBF406800220221FEF7CFBF002333
:105E5C0040681A46FEF7BABF024B03225A60024A48
:105E6C001A6070473CE7032014650B007047000074
:105E7C0038B5044614252A46002100F05FF9258028
:105E8C004025074925812846258200F02FF8044932
:105E9C006060284600F02AF8E060204638BD00BF5C
:105EAC0048650B0030B50E4D2978BFF35B8F11F0B0
:105EBC00010487B011D12846FEF7EDF868B101A8AE
:105ECC00FFF7D6FF01AA21460648FFF749FC2846F2
:105EDC00FEF7E6F8044800F01DF9024807B030BDA3
:105EEC0048E703204CE70320795E0B00FEF7CDB8A2
:105EFC00014900F0F9B800BF64650B007FB50024C0
:105F0C001023CDE90234036815469E6912686B466E
:105F1C00CDE90044B0479DF8043003F00603062B8E
:105F2C0003BF009B2B600120204604B070BD00987D
:105F3C00904214BF012006207047000010B5034B9F
:105F4C000360044600F0CDF8204610BDA4650B009C
:105F5C0010B50446FFF7F2FF20460821FEF799F82A
:105F6C00204610BD2DE9F0411F46DDE90834DDF86F
:105F7C00188098450646154607D1079900F0B4F8E5
:105F8C0018B165710020BDE8F0813946304600F04B
:105F9C00ABF80028F6D00123C4F800802571A3715A
:105FAC00F0E738B515461C4600F09EF820B10823E2
:105FBC00E36006232560237138BD73B505460C4696
:105FCC0001921E4600F090F850B9032E08D82368B1
:105FDC00019A5B692946204602B0BDE8704018471B
:105FEC0002B070BD10B5034B03600446FFF7A6FF6B
:105FFC00204610BD04660B0010B50446FFF7F2FFF7
:10600C0020460C21FEF745F8204610BDF7B5089F39
:10601C00974205460E4614460AD0A86802680897AF
:10602C00156A31462246AC4603B0BDE8F0406047E5
:10603C001946019300F058F8019B0028EDD006207A
:10604C0003B0F0BD2DE9F14F0D461946DDE90A4BC1
:10605C00DDE90CA681461746984600F045F890B14C
:10606C00002D3460377109DB61198A450CBF06219C
:10607C000121B171002001B0BDE8F08F0235F9D1DA
:10608C000123B371F6E7544506D15946484600F052
:10609C002BF808B17771EDE7D9F808000368CDE962
:1060AC000CA6CDE90A4BDC693A4643462946A44680
:1060BC0001B0BDE8F04F60472DE9F04107460C46B2
:1060CC0015461E46FFF76DFF48B9B86803689F690F
:1060DC002A4633462146BC46BDE8F0416047BDE840
:1060EC00F081704700207047814208B50ED040689F
:1060FC0003782A2B0CD049680B782A2B08BF013166
:10610C0000F052F8B0FA80F0400908BD0120FCE71D
:10611C000020FAE7002301461A46184600F056B84C
:10612C000A44914200F1FF3300D1704710B511F8C9
:10613C00014B03F8014F9142F9D110BD02440346C3
:10614C00934200D1704703F8011BF9E738B5104BA7
:10615C001D68AB6B0446B3B91820FEF7B3FE0246BC
:10616C00A86320B90B4B0C484221FEF7CBFE0B4920
:10617C000B4BC0E900130B4B83600B238381002175
:10618C000120C2E90401AB6B00221C615A6138BDCD
:10619C00FCE503203D660B0054660B000E33CDABC3
:1061AC0034126DE6ECDE050010F8012B11F8013B02
:1061BC00012A28BF9A42F7D0D01A7047034613F829
:1061CC00012B002AFBD1181A013870472DE9F8432E
:1061DC00DFF8B8800646D8F800001F460D469146F9
:1061EC0000F056F8254B1C6834B9254C1C60254B27
:1061FC0013B11B68C4F8883063681F2B07DDD8F80F
:10620C00000000F047F84FF0FF30BDE8F8834EB3C4
:10621C00D4F8880088B91C4B23B9D8F8000000F0DA
:10622C0038F8F0E74FF48470FEF74CFE0028F4D0F9
:10623C000023C0E94033C4F88800636840F8239019
:10624C0001229A4000EB8301D0F800311343C0F8CF
:10625C000031022EC1F8807002BFD0F80431134314
:10626C00C0F804316368D8F800005A1C023362602D
:10627C0044F8235000F00EF80020C6E7ECE70320AA
:10628C0060E7032000000000D14E0B0060E6032005
:10629C0070477047704700001D400B0059400B00C1
:1062AC0081400B0085400B00000000007472756586
:1062BC00006D6178696D75732D66736D2F6E6F72DD
:1062CC0074682D6C696768742D7374617465006DE6
:1062DC006178696D75732D66736D2F656173742D9F
:1062EC006C696768742D7374617465006368616EA2
:1062FC0067696E67206E6F727468206C696768746A
:10630C0020737461746520746F2079656C6C6F7781
:10631C00006D6178696D75732D66736D2F6E6F727C
:10632C0074682D6361722D73656E736F72006D618D
:10633C0078696D75732D66736D2F656173742D633C
:10634C0061722D73656E736F72006C61622E74686E
:10635C006577636C2E636F6D0000044D51545404CB
:10636C0000064D51497364700300000000000000EA
:10637C0000000000314F0B003B4F0B00454F0B0052
:10638C004F4F0B00594F0B00654F0B00714F0B001B
:10639C00794F0B00814F0B008D4F0B00954F0B006D
:1063AC009F4F0B00A94F0B000000000000000000E5
:1063BC00F3500B00E9500B00DF500B0095500B0015
:1063CC00D3500B00C7500B00714F0B00794F0B00D3
:1063DC00BB500B00B3500B00A9500B009F500B008F
:1063EC00A94F0B00776972696E670072656376203E
:1063FC006572726F72203D20256400000000000061
:10640C000000000095510B00B9510B00EB560B002E
:10641C00C7510B0099510B00000000000000000058
:10642C00000000000000000045520B0079520B00E8
:10643C0011510B002B510B0081550B0055510B00CA
:10644C00F7530B0089510B0089540B00C9520B00F8
:10645C0025540B0035560B00C5530B008B510B000C
:10646C003D510B00CD510B00A9520B000000000058
:10647C0000000000F1560B005D570B0035570B0068
:10648C00195B0B0005570B0021570B0013570B0022
:10649C002F570B00F3560B00F7560B0000000000B3
:1064AC00000000009B570B0003580B00D9570B0042
:1064BC00195B0B00CB570B009D570B00AD570B0016
:1064CC00FD570B00BD570B0095570B00000000004B
:1064DC0000000000A5580B0095580B0097580B00B6
:1064EC0025592D256D2D25645425483A254D3A25E1
:1064FC0053257A0061736374696D65006170700077
:10650C0000000000000000005B5E0B00515E0B0001
:10651C00475E0B003D5E0B00315E0B00255E0B00F1
:10652C00714F0B00794F0B00195E0B00115E0B00C5
:10653C00075E0B00FD5D0B00A94F0B00005374317F
:10654C00395F53705F6D616B655F73686172656411
:10655C005F74616700000000A4650B0049650B00C7
:10656C0004660B0078650B0028660B004E31305F1B
:10657C005F637878616269763131375F5F636C6134
:10658C0073735F747970655F696E666F45000000A8
:10659C00000000006C650B00495F0B005D5F0B0099
:1065AC00F1600B00F1600B00C75F0B00095F0B0083
:1065BC00AF5F0B00715F0B003B5F0B0004660B00C1
:1065CC00D4650B006C650B004E31305F5F637878DF
:1065DC00616269763132305F5F73695F636C6173DE
:1065EC00735F747970655F696E666F4500000000BB
:1065FC0000000000C8650B00F15F0B0005600B008C
:10660C00F1600B00F1600B00C75F0B00095F0B0022
:10661C00C5600B0051600B0019600B00A4650B00EA
:10662C0030660B00537439747970655F696E666FF0
:10663C00005245454E54206D616C6C6F6320737530
:10664C0063636565646564002F6D6E742F776F727C
:10665C006B73706163652F776F726B7370616365B9
:10666C002F4743432D31302D706970656C696E6511
:10667C002F6A656E6B696E732D4743432D31302D38
:10668C00706970656C696E652D34385F32303230EC
:10669C00313132345F313630363138303634312F97
:1066AC007372632F6E65776C69622F6E65776C6998
:1066BC00622F6C6962632F7374646C69622F7261F0
:1066CC006E642E63000000000D430B0081500B0024
:1066DC00FD500B00E95A0B00F55A0B00095B0B003F
:1066EC00D95B0B00D95D0B00655E0B000000000050
:0466FC00000000009A
:10670000040000001400000003000000474E550084
:106710007944B6BD92C5829573ECAD3379FFD41739
:046720006F9A45C067
:046724000000000071
:106728000200000000650B0000E6032000000000E6
:106738000000000000000000000000000000000051
:106748000000000000000000000000000000000041
:106758000000000000000000000000000000000031
:106768000000000000000000000000000000000021
:106778000000000000000000000000000000000011
:10678800000000000000000000000000F0E7032007
:10679800FFFFFFFF00000102030405060708090ABE
:1067A8000B0C0D0E0F101112131415161718191AB9
:0867B8001B1C1D1E1F20280000
:0467C00078563412C1
:04000003B000401CED
:00000001FF
